{"abi":[{"type":"constructor","inputs":[{"name":"_institutionName","type":"string","internalType":"string"}],"stateMutability":"nonpayable"},{"type":"function","name":"addAlumniRecord","inputs":[{"name":"_certId","type":"string","internalType":"string"},{"name":"_dataHash","type":"bytes32","internalType":"bytes32"}],"outputs":[{"name":"success","type":"bool","internalType":"bool"},{"name":"timestamp","type":"uint256","internalType":"uint256"},{"name":"blockNumber","type":"uint256","internalType":"uint256"}],"stateMutability":"nonpayable"},{"type":"function","name":"authorizeIssuer","inputs":[{"name":"_issuer","type":"address","internalType":"address"},{"name":"_name","type":"string","internalType":"string"}],"outputs":[],"stateMutability":"nonpayable"},{"type":"function","name":"authorizedIssuers","inputs":[{"name":"","type":"address","internalType":"address"}],"outputs":[{"name":"","type":"bool","internalType":"bool"}],"stateMutability":"view"},{"type":"function","name":"certificateIds","inputs":[{"name":"","type":"uint256","internalType":"uint256"}],"outputs":[{"name":"","type":"string","internalType":"string"}],"stateMutability":"view"},{"type":"function","name":"generateDataHash","inputs":[{"name":"_name","type":"string","internalType":"string"},{"name":"_rollNumber","type":"string","internalType":"string"},{"name":"_degree","type":"string","internalType":"string"},{"name":"_branch","type":"string","internalType":"string"},{"name":"_graduationYear","type":"string","internalType":"string"},{"name":"_certId","type":"string","internalType":"string"}],"outputs":[{"name":"","type":"bytes32","internalType":"bytes32"}],"stateMutability":"pure"},{"type":"function","name":"getAllCertificateIds","inputs":[],"outputs":[{"name":"","type":"string[]","internalType":"string[]"}],"stateMutability":"view"},{"type":"function","name":"getIssuerName","inputs":[{"name":"_issuer","type":"address","internalType":"address"}],"outputs":[{"name":"","type":"string","internalType":"string"}],"stateMutability":"view"},{"type":"function","name":"getRecord","inputs":[{"name":"_certId","type":"string","internalType":"string"}],"outputs":[{"name":"dataHash","type":"bytes32","internalType":"bytes32"},{"name":"issuer","type":"address","internalType":"address"},{"name":"issuerName","type":"string","internalType":"string"},{"name":"timestamp","type":"uint256","internalType":"uint256"},{"name":"blockNumber","type":"uint256","internalType":"uint256"},{"name":"exists","type":"bool","internalType":"bool"},{"name":"isRevoked","type":"bool","internalType":"bool"}],"stateMutability":"view"},{"type":"function","name":"getTotalRecords","inputs":[],"outputs":[{"name":"","type":"uint256","internalType":"uint256"}],"stateMutability":"view"},{"type":"function","name":"isAuthorizedIssuer","inputs":[{"name":"_address","type":"address","internalType":"address"}],"outputs":[{"name":"","type":"bool","internalType":"bool"}],"stateMutability":"view"},{"type":"function","name":"issuerNames","inputs":[{"name":"","type":"address","internalType":"address"}],"outputs":[{"name":"","type":"string","internalType":"string"}],"stateMutability":"view"},{"type":"function","name":"owner","inputs":[],"outputs":[{"name":"","type":"address","internalType":"address"}],"stateMutability":"view"},{"type":"function","name":"recordExists","inputs":[{"name":"_certId","type":"string","internalType":"string"}],"outputs":[{"name":"exists","type":"bool","internalType":"bool"}],"stateMutability":"view"},{"type":"function","name":"records","inputs":[{"name":"","type":"string","internalType":"string"}],"outputs":[{"name":"certId","type":"string","internalType":"string"},{"name":"dataHash","type":"bytes32","internalType":"bytes32"},{"name":"issuer","type":"address","internalType":"address"},{"name":"timestamp","type":"uint256","internalType":"uint256"},{"name":"blockNumber","type":"uint256","internalType":"uint256"},{"name":"exists","type":"bool","internalType":"bool"},{"name":"issuerName","type":"string","internalType":"string"},{"name":"isRevoked","type":"bool","internalType":"bool"}],"stateMutability":"view"},{"type":"function","name":"revokeAlumniRecord","inputs":[{"name":"_certId","type":"string","internalType":"string"}],"outputs":[],"stateMutability":"nonpayable"},{"type":"function","name":"revokeIssuer","inputs":[{"name":"_issuer","type":"address","internalType":"address"}],"outputs":[],"stateMutability":"nonpayable"},{"type":"function","name":"totalRecords","inputs":[],"outputs":[{"name":"","type":"uint256","internalType":"uint256"}],"stateMutability":"view"},{"type":"function","name":"transferOwnership","inputs":[{"name":"_newOwner","type":"address","internalType":"address"}],"outputs":[],"stateMutability":"nonpayable"},{"type":"function","name":"verifyRecord","inputs":[{"name":"_certId","type":"string","internalType":"string"},{"name":"_dataHash","type":"bytes32","internalType":"bytes32"}],"outputs":[{"name":"isValid","type":"bool","internalType":"bool"},{"name":"issuer","type":"address","internalType":"address"},{"name":"issuerName","type":"string","internalType":"string"},{"name":"timestamp","type":"uint256","internalType":"uint256"},{"name":"blockNumber","type":"uint256","internalType":"uint256"},{"name":"isRevoked","type":"bool","internalType":"bool"}],"stateMutability":"nonpayable"},{"type":"event","name":"AlumniRecordAdded","inputs":[{"name":"certId","type":"string","indexed":true,"internalType":"string"},{"name":"dataHash","type":"bytes32","indexed":false,"internalType":"bytes32"},{"name":"issuer","type":"address","indexed":true,"internalType":"address"},{"name":"issuerName","type":"string","indexed":false,"internalType":"string"},{"name":"timestamp","type":"uint256","indexed":false,"internalType":"uint256"},{"name":"blockNumber","type":"uint256","indexed":false,"internalType":"uint256"}],"anonymous":false},{"type":"event","name":"IssuerAuthorized","inputs":[{"name":"issuer","type":"address","indexed":true,"internalType":"address"},{"name":"name","type":"string","indexed":false,"internalType":"string"}],"anonymous":false},{"type":"event","name":"IssuerRevoked","inputs":[{"name":"issuer","type":"address","indexed":true,"internalType":"address"}],"anonymous":false},{"type":"event","name":"RecordRevoked","inputs":[{"name":"certId","type":"string","indexed":true,"internalType":"string"},{"name":"revokedBy","type":"address","indexed":true,"internalType":"address"},{"name":"timestamp","type":"uint256","indexed":false,"internalType":"uint256"}],"anonymous":false},{"type":"event","name":"RecordVerified","inputs":[{"name":"certId","type":"string","indexed":true,"internalType":"string"},{"name":"isValid","type":"bool","indexed":false,"internalType":"bool"}],"anonymous":false}],"bytecode":{"object":"0x608060405234801561000f575f5ffd5b506040516135de3803806135de833981810160405281019061003191906102b0565b335f5f6101000a81548173ffffffffffffffffffffffffffffffffffffffff021916908373ffffffffffffffffffffffffffffffffffffffff1602179055506001805f3373ffffffffffffffffffffffffffffffffffffffff1673ffffffffffffffffffffffffffffffffffffffff1681526020019081526020015f205f6101000a81548160ff0219169083151502179055508060025f3373ffffffffffffffffffffffffffffffffffffffff1673ffffffffffffffffffffffffffffffffffffffff1681526020019081526020015f20908161010e9190610518565b503373ffffffffffffffffffffffffffffffffffffffff167f4a1726c837046486d7e0af20814f9e585c72cfaa1c46e87414677bc7baab9be282604051610155919061062f565b60405180910390a25061064f565b5f604051905090565b5f5ffd5b5f5ffd5b5f5ffd5b5f5ffd5b5f601f19601f8301169050919050565b7f4e487b71000000000000000000000000000000000000000000000000000000005f52604160045260245ffd5b6101c28261017c565b810181811067ffffffffffffffff821117156101e1576101e061018c565b5b80604052505050565b5f6101f3610163565b90506101ff82826101b9565b919050565b5f67ffffffffffffffff82111561021e5761021d61018c565b5b6102278261017c565b9050602081019050919050565b8281835e5f83830152505050565b5f61025461024f84610204565b6101ea565b9050828152602081018484840111156102705761026f610178565b5b61027b848285610234565b509392505050565b5f82601f83011261029757610296610174565b5b81516102a7848260208601610242565b91505092915050565b5f602082840312156102c5576102c461016c565b5b5f82015167ffffffffffffffff8111156102e2576102e1610170565b5b6102ee84828501610283565b91505092915050565b5f81519050919050565b7f4e487b71000000000000000000000000000000000000000000000000000000005f52602260045260245ffd5b5f600282049050600182168061034557607f821691505b60208210810361035857610357610301565b5b50919050565b5f819050815f5260205f209050919050565b5f6020601f8301049050919050565b5f82821b905092915050565b5f600883026103ba7fffffffffffffffffffffffffffffffffffffffffffffffffffffffffffffffff8261037f565b6103c4868361037f565b95508019841693508086168417925050509392505050565b5f819050919050565b5f819050919050565b5f6104086104036103fe846103dc565b6103e5565b6103dc565b9050919050565b5f819050919050565b610421836103ee565b61043561042d8261040f565b84845461038b565b825550505050565b5f5f905090565b61044c61043d565b610457818484610418565b505050565b5f5b8281101561047d576104725f828401610444565b60018101905061045e565b505050565b601f8211156104d057828211156104cf5761049c8161035e565b6104a583610370565b6104ae85610370565b60208610156104bb575f90505b8083016104ca8284038261045c565b505050505b5b505050565b5f82821c905092915050565b5f6104f05f19846008026104d5565b1980831691505092915050565b5f61050883836104e1565b9150826002028217905092915050565b610521826102f7565b67ffffffffffffffff81111561053a5761053961018c565b5b610544825461032e565b61054f828285610482565b5f60209050601f831160018114610580575f841561056e578287015190505b61057885826104fd565b8655506105df565b601f19841661058e8661035e565b5f5b828110156105b557848901518255600182019150602085019450602081019050610590565b868310156105d257848901516105ce601f8916826104e1565b8355505b6001600288020188555050505b505050505050565b5f82825260208201905092915050565b5f610601826102f7565b61060b81856105e7565b935061061b818560208601610234565b6106248161017c565b840191505092915050565b5f6020820190508181035f83015261064781846105f7565b905092915050565b612f828061065c5f395ff3fe608060405234801561000f575f5ffd5b506004361061011e575f3560e01c8063540248f0116100ab5780638da5cb5b1161006f5780638da5cb5b146103765780638fa44e1514610394578063e7af3bc4146103b2578063f2fde38b146103e2578063f731fa0f146103fe5761011e565b8063540248f0146102a7578063541e771d146102d75780635c1020f41461030e57806372ed06b21461033e5780637f8d3a3c1461035a5761011e565b806311dd8845116100f257806311dd8845146101bc578063122a183a146101f2578063125f897414610227578063247565771461024557806331ba1966146102775761011e565b80626296791461012257806307ec312a1461013e5780630aeacb5e1461016e5780630f9c774d1461018c575b5f5ffd5b61013c60048036038101906101379190611d10565b61042e565b005b61015860048036038101906101539190611d10565b61066d565b6040516101659190611dab565b60405180910390f35b61017661073a565b6040516101839190611de3565b60405180910390f35b6101a660048036038101906101a19190611e26565b610743565b6040516101b39190611dab565b60405180910390f35b6101d660048036038101906101d19190611f7d565b6107e9565b6040516101e99796959493929190612005565b60405180910390f35b61020c600480360381019061020791906120a3565b610a21565b60405161021e969594939291906120fd565b60405180910390f35b61022f610d11565b60405161023c9190611de3565b60405180910390f35b61025f600480360381019061025a91906120a3565b610d17565b60405161026e93929190612163565b60405180910390f35b610291600480360381019061028c9190611d10565b6111a4565b60405161029e9190612198565b60405180910390f35b6102c160048036038101906102bc9190611f7d565b6111f6565b6040516102ce9190612198565b60405180910390f35b6102f160048036038101906102ec9190611f7d565b61122c565b6040516103059897969594939291906121b1565b60405180910390f35b6103286004803603810190610323919061223b565b6113cb565b604051610335919061236c565b60405180910390f35b61035860048036038101906103539190611f7d565b611409565b005b610374600480360381019061036f9190612385565b61160f565b005b61037e611886565b60405161038b91906123df565b60405180910390f35b61039c6118aa565b6040516103a991906124fb565b60405180910390f35b6103cc60048036038101906103c79190611d10565b61197e565b6040516103d99190611dab565b60405180910390f35b6103fc60048036038101906103f79190611d10565b611a19565b005b61041860048036038101906104139190611d10565b611c88565b6040516104259190612198565b60405180910390f35b5f5f9054906101000a900473ffffffffffffffffffffffffffffffffffffffff1673ffffffffffffffffffffffffffffffffffffffff163373ffffffffffffffffffffffffffffffffffffffff16146104bc576040517f08c379a00000000000000000000000000000000000000000000000000000000081526004016104b39061258b565b60405180910390fd5b60015f8273ffffffffffffffffffffffffffffffffffffffff1673ffffffffffffffffffffffffffffffffffffffff1681526020019081526020015f205f9054906101000a900460ff16610545576040517f08c379a000000000000000000000000000000000000000000000000000000000815260040161053c906125f3565b60405180910390fd5b5f5f9054906101000a900473ffffffffffffffffffffffffffffffffffffffff1673ffffffffffffffffffffffffffffffffffffffff168173ffffffffffffffffffffffffffffffffffffffff16036105d3576040517f08c379a00000000000000000000000000000000000000000000000000000000081526004016105ca9061265b565b60405180910390fd5b5f60015f8373ffffffffffffffffffffffffffffffffffffffff1673ffffffffffffffffffffffffffffffffffffffff1681526020019081526020015f205f6101000a81548160ff0219169083151502179055508073ffffffffffffffffffffffffffffffffffffffff167f95a4c2ae425bb769549aa1a911911ff57c17ae811ae8c8962d0b9746fcb1539760405160405180910390a250565b606060025f8373ffffffffffffffffffffffffffffffffffffffff1673ffffffffffffffffffffffffffffffffffffffff1681526020019081526020015f2080546106b7906126a6565b80601f01602080910402602001604051908101604052809291908181526020018280546106e3906126a6565b801561072e5780601f106107055761010080835404028352916020019161072e565b820191905f5260205f20905b81548152906001019060200180831161071157829003601f168201915b50505050509050919050565b5f600554905090565b60048181548110610752575f80fd5b905f5260205f20015f91509050805461076a906126a6565b80601f0160208091040260200160405190810160405280929190818152602001828054610796906126a6565b80156107e15780601f106107b8576101008083540402835291602001916107e1565b820191905f5260205f20905b8154815290600101906020018083116107c457829003601f168201915b505050505081565b5f5f60605f5f5f5f5f6003896040516108029190612710565b9081526020016040518091039020604051806101000160405290815f8201805461082b906126a6565b80601f0160208091040260200160405190810160405280929190818152602001828054610857906126a6565b80156108a25780601f10610879576101008083540402835291602001916108a2565b820191905f5260205f20905b81548152906001019060200180831161088557829003601f168201915b5050505050815260200160018201548152602001600282015f9054906101000a900473ffffffffffffffffffffffffffffffffffffffff1673ffffffffffffffffffffffffffffffffffffffff1673ffffffffffffffffffffffffffffffffffffffff1681526020016003820154815260200160048201548152602001600582015f9054906101000a900460ff16151515158152602001600682018054610948906126a6565b80601f0160208091040260200160405190810160405280929190818152602001828054610974906126a6565b80156109bf5780601f10610996576101008083540402835291602001916109bf565b820191905f5260205f20905b8154815290600101906020018083116109a257829003601f168201915b50505050508152602001600782015f9054906101000a900460ff1615151515815250509050806020015181604001518260c00151836060015184608001518560a001518660e00151975097509750975097509750975050919395979092949650565b5f5f60605f5f5f87600381604051610a399190612710565b90815260200160405180910390206005015f9054906101000a900460ff16610a96576040517f08c379a0000000000000000000000000000000000000000000000000000000008152600401610a8d90612770565b60405180910390fd5b5f60038a604051610aa79190612710565b9081526020016040518091039020604051806101000160405290815f82018054610ad0906126a6565b80601f0160208091040260200160405190810160405280929190818152602001828054610afc906126a6565b8015610b475780601f10610b1e57610100808354040283529160200191610b47565b820191905f5260205f20905b815481529060010190602001808311610b2a57829003601f168201915b5050505050815260200160018201548152602001600282015f9054906101000a900473ffffffffffffffffffffffffffffffffffffffff1673ffffffffffffffffffffffffffffffffffffffff1673ffffffffffffffffffffffffffffffffffffffff1681526020016003820154815260200160048201548152602001600582015f9054906101000a900460ff16151515158152602001600682018054610bed906126a6565b80601f0160208091040260200160405190810160405280929190818152602001828054610c19906126a6565b8015610c645780601f10610c3b57610100808354040283529160200191610c64565b820191905f5260205f20905b815481529060010190602001808311610c4757829003601f168201915b50505050508152602001600782015f9054906101000a900460ff161515151581525050905088816020015114975089604051610ca09190612710565b60405180910390207f9c24415b6fe548751f8d7b81af86d3ff26632f6361514a220a68bdc34771d69889604051610cd79190612198565b60405180910390a28781604001518260c00151836060015184608001518560e0015197509750975097509750975050509295509295509295565b60055481565b5f5f5f60015f3373ffffffffffffffffffffffffffffffffffffffff1673ffffffffffffffffffffffffffffffffffffffff1681526020019081526020015f205f9054906101000a900460ff16610da3576040517f08c379a0000000000000000000000000000000000000000000000000000000008152600401610d9a906127d8565b60405180910390fd5b84600381604051610db49190612710565b90815260200160405180910390206005015f9054906101000a900460ff1615610e12576040517f08c379a0000000000000000000000000000000000000000000000000000000008152600401610e0990612840565b60405180910390fd5b5f865111610e55576040517f08c379a0000000000000000000000000000000000000000000000000000000008152600401610e4c906128a8565b60405180910390fd5b5f5f1b8503610e99576040517f08c379a0000000000000000000000000000000000000000000000000000000008152600401610e9090612910565b60405180910390fd5b5f6040518061010001604052808881526020018781526020013373ffffffffffffffffffffffffffffffffffffffff16815260200142815260200143815260200160011515815260200160025f3373ffffffffffffffffffffffffffffffffffffffff1673ffffffffffffffffffffffffffffffffffffffff1681526020019081526020015f208054610f2b906126a6565b80601f0160208091040260200160405190810160405280929190818152602001828054610f57906126a6565b8015610fa25780601f10610f7957610100808354040283529160200191610fa2565b820191905f5260205f20905b815481529060010190602001808311610f8557829003601f168201915b505050505081526020015f1515815250905080600388604051610fc59190612710565b90815260200160405180910390205f820151815f019081610fe69190612adf565b50602082015181600101556040820151816002015f6101000a81548173ffffffffffffffffffffffffffffffffffffffff021916908373ffffffffffffffffffffffffffffffffffffffff160217905550606082015181600301556080820151816004015560a0820151816005015f6101000a81548160ff02191690831515021790555060c082015181600601908161107f9190612adf565b5060e0820151816007015f6101000a81548160ff021916908315150217905550905050600487908060018154018082558091505060019003905f5260205f20015f9091909190915090816110d39190612adf565b5060055f8154809291906110e690612bdb565b91905055503373ffffffffffffffffffffffffffffffffffffffff16876040516111109190612710565b60405180910390207f824e8f50f40df8889887a2fbd94b2e4f42a1d7ae7c36ec2e1bb709c5747d77628860025f3373ffffffffffffffffffffffffffffffffffffffff1673ffffffffffffffffffffffffffffffffffffffff1681526020019081526020015f2042436040516111899493929190612ca3565b60405180910390a36001424394509450945050509250925092565b5f60015f8373ffffffffffffffffffffffffffffffffffffffff1673ffffffffffffffffffffffffffffffffffffffff1681526020019081526020015f205f9054906101000a900460ff169050919050565b5f6003826040516112079190612710565b90815260200160405180910390206005015f9054906101000a900460ff169050919050565b6003818051602081018201805184825260208301602085012081835280955050505050505f91509050805f018054611263906126a6565b80601f016020809104026020016040519081016040528092919081815260200182805461128f906126a6565b80156112da5780601f106112b1576101008083540402835291602001916112da565b820191905f5260205f20905b8154815290600101906020018083116112bd57829003601f168201915b505050505090806001015490806002015f9054906101000a900473ffffffffffffffffffffffffffffffffffffffff1690806003015490806004015490806005015f9054906101000a900460ff1690806006018054611338906126a6565b80601f0160208091040260200160405190810160405280929190818152602001828054611364906126a6565b80156113af5780601f10611386576101008083540402835291602001916113af565b820191905f5260205f20905b81548152906001019060200180831161139257829003601f168201915b505050505090806007015f9054906101000a900460ff16905088565b5f8686868686866040516020016113e796959493929190612ced565b6040516020818303038152906040528051906020012090509695505050505050565b60015f3373ffffffffffffffffffffffffffffffffffffffff1673ffffffffffffffffffffffffffffffffffffffff1681526020019081526020015f205f9054906101000a900460ff16611492576040517f08c379a0000000000000000000000000000000000000000000000000000000008152600401611489906127d8565b60405180910390fd5b806003816040516114a39190612710565b90815260200160405180910390206005015f9054906101000a900460ff16611500576040517f08c379a00000000000000000000000000000000000000000000000000000000081526004016114f790612770565b60405180910390fd5b6003826040516115109190612710565b90815260200160405180910390206007015f9054906101000a900460ff161561156e576040517f08c379a000000000000000000000000000000000000000000000000000000000815260040161156590612d8e565b60405180910390fd5b60016003836040516115809190612710565b90815260200160405180910390206007015f6101000a81548160ff0219169083151502179055503373ffffffffffffffffffffffffffffffffffffffff16826040516115cc9190612710565b60405180910390207ff3a6324df62592db57fecc8d8c79631eda52900129d616b39619906ba5320c47426040516116039190611de3565b60405180910390a35050565b5f5f9054906101000a900473ffffffffffffffffffffffffffffffffffffffff1673ffffffffffffffffffffffffffffffffffffffff163373ffffffffffffffffffffffffffffffffffffffff161461169d576040517f08c379a00000000000000000000000000000000000000000000000000000000081526004016116949061258b565b60405180910390fd5b5f73ffffffffffffffffffffffffffffffffffffffff168273ffffffffffffffffffffffffffffffffffffffff160361170b576040517f08c379a000000000000000000000000000000000000000000000000000000000815260040161170290612df6565b60405180910390fd5b60015f8373ffffffffffffffffffffffffffffffffffffffff1673ffffffffffffffffffffffffffffffffffffffff1681526020019081526020015f205f9054906101000a900460ff1615611795576040517f08c379a000000000000000000000000000000000000000000000000000000000815260040161178c90612e5e565b60405180910390fd5b6001805f8473ffffffffffffffffffffffffffffffffffffffff1673ffffffffffffffffffffffffffffffffffffffff1681526020019081526020015f205f6101000a81548160ff0219169083151502179055508060025f8473ffffffffffffffffffffffffffffffffffffffff1673ffffffffffffffffffffffffffffffffffffffff1681526020019081526020015f2090816118339190612adf565b508173ffffffffffffffffffffffffffffffffffffffff167f4a1726c837046486d7e0af20814f9e585c72cfaa1c46e87414677bc7baab9be28260405161187a9190611dab565b60405180910390a25050565b5f5f9054906101000a900473ffffffffffffffffffffffffffffffffffffffff1681565b60606004805480602002602001604051908101604052809291908181526020015f905b82821015611975578382905f5260205f200180546118ea906126a6565b80601f0160208091040260200160405190810160405280929190818152602001828054611916906126a6565b80156119615780601f1061193857610100808354040283529160200191611961565b820191905f5260205f20905b81548152906001019060200180831161194457829003601f168201915b5050505050815260200190600101906118cd565b50505050905090565b6002602052805f5260405f205f91509050805461199a906126a6565b80601f01602080910402602001604051908101604052809291908181526020018280546119c6906126a6565b8015611a115780601f106119e857610100808354040283529160200191611a11565b820191905f5260205f20905b8154815290600101906020018083116119f457829003601f168201915b505050505081565b5f5f9054906101000a900473ffffffffffffffffffffffffffffffffffffffff1673ffffffffffffffffffffffffffffffffffffffff163373ffffffffffffffffffffffffffffffffffffffff1614611aa7576040517f08c379a0000000000000000000000000000000000000000000000000000000008152600401611a9e9061258b565b60405180910390fd5b5f73ffffffffffffffffffffffffffffffffffffffff168173ffffffffffffffffffffffffffffffffffffffff1603611b15576040517f08c379a0000000000000000000000000000000000000000000000000000000008152600401611b0c90612ec6565b60405180910390fd5b5f5f9054906101000a900473ffffffffffffffffffffffffffffffffffffffff1673ffffffffffffffffffffffffffffffffffffffff168173ffffffffffffffffffffffffffffffffffffffff1603611ba3576040517f08c379a0000000000000000000000000000000000000000000000000000000008152600401611b9a90612f2e565b60405180910390fd5b805f5f6101000a81548173ffffffffffffffffffffffffffffffffffffffff021916908373ffffffffffffffffffffffffffffffffffffffff16021790555060015f8273ffffffffffffffffffffffffffffffffffffffff1673ffffffffffffffffffffffffffffffffffffffff1681526020019081526020015f205f9054906101000a900460ff16611c85576001805f8373ffffffffffffffffffffffffffffffffffffffff1673ffffffffffffffffffffffffffffffffffffffff1681526020019081526020015f205f6101000a81548160ff0219169083151502179055505b50565b6001602052805f5260405f205f915054906101000a900460ff1681565b5f604051905090565b5f5ffd5b5f5ffd5b5f73ffffffffffffffffffffffffffffffffffffffff82169050919050565b5f611cdf82611cb6565b9050919050565b611cef81611cd5565b8114611cf9575f5ffd5b50565b5f81359050611d0a81611ce6565b92915050565b5f60208284031215611d2557611d24611cae565b5b5f611d3284828501611cfc565b91505092915050565b5f81519050919050565b5f82825260208201905092915050565b8281835e5f83830152505050565b5f601f19601f8301169050919050565b5f611d7d82611d3b565b611d878185611d45565b9350611d97818560208601611d55565b611da081611d63565b840191505092915050565b5f6020820190508181035f830152611dc38184611d73565b905092915050565b5f819050919050565b611ddd81611dcb565b82525050565b5f602082019050611df65f830184611dd4565b92915050565b611e0581611dcb565b8114611e0f575f5ffd5b50565b5f81359050611e2081611dfc565b92915050565b5f60208284031215611e3b57611e3a611cae565b5b5f611e4884828501611e12565b91505092915050565b5f5ffd5b5f5ffd5b7f4e487b71000000000000000000000000000000000000000000000000000000005f52604160045260245ffd5b611e8f82611d63565b810181811067ffffffffffffffff82111715611eae57611ead611e59565b5b80604052505050565b5f611ec0611ca5565b9050611ecc8282611e86565b919050565b5f67ffffffffffffffff821115611eeb57611eea611e59565b5b611ef482611d63565b9050602081019050919050565b828183375f83830152505050565b5f611f21611f1c84611ed1565b611eb7565b905082815260208101848484011115611f3d57611f3c611e55565b5b611f48848285611f01565b509392505050565b5f82601f830112611f6457611f63611e51565b5b8135611f74848260208601611f0f565b91505092915050565b5f60208284031215611f9257611f91611cae565b5b5f82013567ffffffffffffffff811115611faf57611fae611cb2565b5b611fbb84828501611f50565b91505092915050565b5f819050919050565b611fd681611fc4565b82525050565b611fe581611cd5565b82525050565b5f8115159050919050565b611fff81611feb565b82525050565b5f60e0820190506120185f83018a611fcd565b6120256020830189611fdc565b81810360408301526120378188611d73565b90506120466060830187611dd4565b6120536080830186611dd4565b61206060a0830185611ff6565b61206d60c0830184611ff6565b98975050505050505050565b61208281611fc4565b811461208c575f5ffd5b50565b5f8135905061209d81612079565b92915050565b5f5f604083850312156120b9576120b8611cae565b5b5f83013567ffffffffffffffff8111156120d6576120d5611cb2565b5b6120e285828601611f50565b92505060206120f38582860161208f565b9150509250929050565b5f60c0820190506121105f830189611ff6565b61211d6020830188611fdc565b818103604083015261212f8187611d73565b905061213e6060830186611dd4565b61214b6080830185611dd4565b61215860a0830184611ff6565b979650505050505050565b5f6060820190506121765f830186611ff6565b6121836020830185611dd4565b6121906040830184611dd4565b949350505050565b5f6020820190506121ab5f830184611ff6565b92915050565b5f610100820190508181035f8301526121ca818b611d73565b90506121d9602083018a611fcd565b6121e66040830189611fdc565b6121f36060830188611dd4565b6122006080830187611dd4565b61220d60a0830186611ff6565b81810360c083015261221f8185611d73565b905061222e60e0830184611ff6565b9998505050505050505050565b5f5f5f5f5f5f60c0878903121561225557612254611cae565b5b5f87013567ffffffffffffffff81111561227257612271611cb2565b5b61227e89828a01611f50565b965050602087013567ffffffffffffffff81111561229f5761229e611cb2565b5b6122ab89828a01611f50565b955050604087013567ffffffffffffffff8111156122cc576122cb611cb2565b5b6122d889828a01611f50565b945050606087013567ffffffffffffffff8111156122f9576122f8611cb2565b5b61230589828a01611f50565b935050608087013567ffffffffffffffff81111561232657612325611cb2565b5b61233289828a01611f50565b92505060a087013567ffffffffffffffff81111561235357612352611cb2565b5b61235f89828a01611f50565b9150509295509295509295565b5f60208201905061237f5f830184611fcd565b92915050565b5f5f6040838503121561239b5761239a611cae565b5b5f6123a885828601611cfc565b925050602083013567ffffffffffffffff8111156123c9576123c8611cb2565b5b6123d585828601611f50565b9150509250929050565b5f6020820190506123f25f830184611fdc565b92915050565b5f81519050919050565b5f82825260208201905092915050565b5f819050602082019050919050565b5f82825260208201905092915050565b5f61243b82611d3b565b6124458185612421565b9350612455818560208601611d55565b61245e81611d63565b840191505092915050565b5f6124748383612431565b905092915050565b5f602082019050919050565b5f612492826123f8565b61249c8185612402565b9350836020820285016124ae85612412565b805f5b858110156124e957848403895281516124ca8582612469565b94506124d58361247c565b925060208a019950506001810190506124b1565b50829750879550505050505092915050565b5f6020820190508181035f8301526125138184612488565b905092915050565b7f4f6e6c79206f776e65722063616e2063616c6c20746869732066756e6374696f5f8201527f6e00000000000000000000000000000000000000000000000000000000000000602082015250565b5f612575602183611d45565b91506125808261251b565b604082019050919050565b5f6020820190508181035f8301526125a281612569565b9050919050565b7f497373756572206e6f7420617574686f72697a656400000000000000000000005f82015250565b5f6125dd601583611d45565b91506125e8826125a9565b602082019050919050565b5f6020820190508181035f83015261260a816125d1565b9050919050565b7f43616e6e6f74207265766f6b65206f776e6572000000000000000000000000005f82015250565b5f612645601383611d45565b915061265082612611565b602082019050919050565b5f6020820190508181035f83015261267281612639565b9050919050565b7f4e487b71000000000000000000000000000000000000000000000000000000005f52602260045260245ffd5b5f60028204905060018216806126bd57607f821691505b6020821081036126d0576126cf612679565b5b50919050565b5f81905092915050565b5f6126ea82611d3b565b6126f481856126d6565b9350612704818560208601611d55565b80840191505092915050565b5f61271b82846126e0565b915081905092915050565b7f436572746966696361746520494420646f6573206e6f742065786973740000005f82015250565b5f61275a601d83611d45565b915061276582612726565b602082019050919050565b5f6020820190508181035f8301526127878161274e565b9050919050565b7f4e6f7420616e20617574686f72697a65642069737375657200000000000000005f82015250565b5f6127c2601883611d45565b91506127cd8261278e565b602082019050919050565b5f6020820190508181035f8301526127ef816127b6565b9050919050565b7f436572746966696361746520494420616c7265616479206578697374730000005f82015250565b5f61282a601d83611d45565b9150612835826127f6565b602082019050919050565b5f6020820190508181035f8301526128578161281e565b9050919050565b7f43657274696669636174652049442063616e6e6f7420626520656d70747900005f82015250565b5f612892601e83611d45565b915061289d8261285e565b602082019050919050565b5f6020820190508181035f8301526128bf81612886565b9050919050565b7f4461746120686173682063616e6e6f7420626520656d707479000000000000005f82015250565b5f6128fa601983611d45565b9150612905826128c6565b602082019050919050565b5f6020820190508181035f830152612927816128ee565b9050919050565b5f819050815f5260205f209050919050565b5f6020601f8301049050919050565b5f82821b905092915050565b5f6008830261298a7fffffffffffffffffffffffffffffffffffffffffffffffffffffffffffffffff8261294f565b612994868361294f565b95508019841693508086168417925050509392505050565b5f819050919050565b5f6129cf6129ca6129c584611dcb565b6129ac565b611dcb565b9050919050565b5f819050919050565b6129e8836129b5565b6129fc6129f4826129d6565b84845461295b565b825550505050565b5f5f905090565b612a13612a04565b612a1e8184846129df565b505050565b5f5b82811015612a4457612a395f828401612a0b565b600181019050612a25565b505050565b601f821115612a975782821115612a9657612a638161292e565b612a6c83612940565b612a7585612940565b6020861015612a82575f90505b808301612a9182840382612a23565b505050505b5b505050565b5f82821c905092915050565b5f612ab75f1984600802612a9c565b1980831691505092915050565b5f612acf8383612aa8565b9150826002028217905092915050565b612ae882611d3b565b67ffffffffffffffff811115612b0157612b00611e59565b5b612b0b82546126a6565b612b16828285612a49565b5f60209050601f831160018114612b47575f8415612b35578287015190505b612b3f8582612ac4565b865550612ba6565b601f198416612b558661292e565b5f5b82811015612b7c57848901518255600182019150602085019450602081019050612b57565b86831015612b995784890151612b95601f891682612aa8565b8355505b6001600288020188555050505b505050505050565b7f4e487b71000000000000000000000000000000000000000000000000000000005f52601160045260245ffd5b5f612be582611dcb565b91507fffffffffffffffffffffffffffffffffffffffffffffffffffffffffffffffff8203612c1757612c16612bae565b5b600182019050919050565b5f8154612c2e816126a6565b612c388186611d45565b9450600182165f8114612c525760018114612c6857612c9a565b60ff198316865281151560200286019350612c9a565b612c718561292e565b5f5b83811015612c9257815481890152600182019150602081019050612c73565b808801955050505b50505092915050565b5f608082019050612cb65f830187611fcd565b8181036020830152612cc88186612c22565b9050612cd76040830185611dd4565b612ce46060830184611dd4565b95945050505050565b5f612cf882896126e0565b9150612d0482886126e0565b9150612d1082876126e0565b9150612d1c82866126e0565b9150612d2882856126e0565b9150612d3482846126e0565b9150819050979650505050505050565b7f5265636f726420697320616c7265616479207265766f6b6564000000000000005f82015250565b5f612d78601983611d45565b9150612d8382612d44565b602082019050919050565b5f6020820190508181035f830152612da581612d6c565b9050919050565b7f496e76616c6964206973737565722061646472657373000000000000000000005f82015250565b5f612de0601683611d45565b9150612deb82612dac565b602082019050919050565b5f6020820190508181035f830152612e0d81612dd4565b9050919050565b7f49737375657220616c726561647920617574686f72697a6564000000000000005f82015250565b5f612e48601983611d45565b9150612e5382612e14565b602082019050919050565b5f6020820190508181035f830152612e7581612e3c565b9050919050565b7f496e76616c6964206e6577206f776e65722061646472657373000000000000005f82015250565b5f612eb0601983611d45565b9150612ebb82612e7c565b602082019050919050565b5f6020820190508181035f830152612edd81612ea4565b9050919050565b7f416c726561647920746865206f776e65720000000000000000000000000000005f82015250565b5f612f18601183611d45565b9150612f2382612ee4565b602082019050919050565b5f6020820190508181035f830152612f4581612f0c565b905091905056fea2646970667358221220090d4b97ed27f951b40225fa8fd840d3fc7d67a5f02e9e2b48b123addd5ff19f64736f6c63430008210033","linkReferences":{}},"methodIdentifiers":{"addAlumniRecord(string,bytes32)":"24756577","authorizeIssuer(address,string)":"7f8d3a3c","authorizedIssuers(address)":"f731fa0f","certificateIds(uint256)":"0f9c774d","generateDataHash(string,string,string,string,string,string)":"5c1020f4","getAllCertificateIds()":"8fa44e15","getIssuerName(address)":"07ec312a","getRecord(string)":"11dd8845","getTotalRecords()":"0aeacb5e","isAuthorizedIssuer(address)":"31ba1966","issuerNames(address)":"e7af3bc4","owner()":"8da5cb5b","recordExists(string)":"540248f0","records(string)":"541e771d","revokeAlumniRecord(string)":"72ed06b2","revokeIssuer(address)":"00629679","totalRecords()":"125f8974","transferOwnership(address)":"f2fde38b","verifyRecord(string,bytes32)":"122a183a"},"id":22}