{"abi":[{"type":"constructor","inputs":[{"name":"_institutionName","type":"string","internalType":"string"}],"stateMutability":"nonpayable"},{"type":"function","name":"addAlumniRecord","inputs":[{"name":"_certId","type":"string","internalType":"string"},{"name":"_dataHash","type":"bytes32","internalType":"bytes32"}],"outputs":[{"name":"success","type":"bool","internalType":"bool"},{"name":"timestamp","type":"uint256","internalType":"uint256"},{"name":"blockNumber","type":"uint256","internalType":"uint256"}],"stateMutability":"nonpayable"},{"type":"function","name":"authorizeIssuer","inputs":[{"name":"_issuer","type":"address","internalType":"address"},{"name":"_name","type":"string","internalType":"string"}],"outputs":[],"stateMutability":"nonpayable"},{"type":"function","name":"authorizedIssuers","inputs":[{"name":"","type":"address","internalType":"address"}],"outputs":[{"name":"","type":"bool","internalType":"bool"}],"stateMutability":"view"},{"type":"function","name":"certificateIds","inputs":[{"name":"","type":"uint256","internalType":"uint256"}],"outputs":[{"name":"","type":"string","internalType":"string"}],"stateMutability":"view"},{"type":"function","name":"generateDataHash","inputs":[{"name":"_name","type":"string","internalType":"string"},{"name":"_rollNumber","type":"string","internalType":"string"},{"name":"_degree","type":"string","internalType":"string"},{"name":"_branch","type":"string","internalType":"string"},{"name":"_graduationYear","type":"string","internalType":"string"},{"name":"_certId","type":"string","internalType":"string"}],"outputs":[{"name":"","type":"bytes32","internalType":"bytes32"}],"stateMutability":"pure"},{"type":"function","name":"getAllCertificateIds","inputs":[],"outputs":[{"name":"","type":"string[]","internalType":"string[]"}],"stateMutability":"view"},{"type":"function","name":"getIssuerName","inputs":[{"name":"_issuer","type":"address","internalType":"address"}],"outputs":[{"name":"","type":"string","internalType":"string"}],"stateMutability":"view"},{"type":"function","name":"getRecord","inputs":[{"name":"_certId","type":"string","internalType":"string"}],"outputs":[{"name":"dataHash","type":"bytes32","internalType":"bytes32"},{"name":"issuer","type":"address","internalType":"address"},{"name":"issuerName","type":"string","internalType":"string"},{"name":"timestamp","type":"uint256","internalType":"uint256"},{"name":"blockNumber","type":"uint256","internalType":"uint256"},{"name":"exists","type":"bool","internalType":"bool"}],"stateMutability":"view"},{"type":"function","name":"getTotalRecords","inputs":[],"outputs":[{"name":"","type":"uint256","internalType":"uint256"}],"stateMutability":"view"},{"type":"function","name":"isAuthorizedIssuer","inputs":[{"name":"_address","type":"address","internalType":"address"}],"outputs":[{"name":"","type":"bool","internalType":"bool"}],"stateMutability":"view"},{"type":"function","name":"issuerNames","inputs":[{"name":"","type":"address","internalType":"address"}],"outputs":[{"name":"","type":"string","internalType":"string"}],"stateMutability":"view"},{"type":"function","name":"owner","inputs":[],"outputs":[{"name":"","type":"address","internalType":"address"}],"stateMutability":"view"},{"type":"function","name":"recordExists","inputs":[{"name":"_certId","type":"string","internalType":"string"}],"outputs":[{"name":"exists","type":"bool","internalType":"bool"}],"stateMutability":"view"},{"type":"function","name":"records","inputs":[{"name":"","type":"string","internalType":"string"}],"outputs":[{"name":"certId","type":"string","internalType":"string"},{"name":"dataHash","type":"bytes32","internalType":"bytes32"},{"name":"issuer","type":"address","internalType":"address"},{"name":"timestamp","type":"uint256","internalType":"uint256"},{"name":"blockNumber","type":"uint256","internalType":"uint256"},{"name":"exists","type":"bool","internalType":"bool"},{"name":"issuerName","type":"string","internalType":"string"}],"stateMutability":"view"},{"type":"function","name":"revokeIssuer","inputs":[{"name":"_issuer","type":"address","internalType":"address"}],"outputs":[],"stateMutability":"nonpayable"},{"type":"function","name":"totalRecords","inputs":[],"outputs":[{"name":"","type":"uint256","internalType":"uint256"}],"stateMutability":"view"},{"type":"function","name":"transferOwnership","inputs":[{"name":"_newOwner","type":"address","internalType":"address"}],"outputs":[],"stateMutability":"nonpayable"},{"type":"function","name":"verifyRecord","inputs":[{"name":"_certId","type":"string","internalType":"string"},{"name":"_dataHash","type":"bytes32","internalType":"bytes32"}],"outputs":[{"name":"isValid","type":"bool","internalType":"bool"},{"name":"issuer","type":"address","internalType":"address"},{"name":"issuerName","type":"string","internalType":"string"},{"name":"timestamp","type":"uint256","internalType":"uint256"},{"name":"blockNumber","type":"uint256","internalType":"uint256"}],"stateMutability":"nonpayable"},{"type":"event","name":"AlumniRecordAdded","inputs":[{"name":"certId","type":"string","indexed":true,"internalType":"string"},{"name":"dataHash","type":"bytes32","indexed":false,"internalType":"bytes32"},{"name":"issuer","type":"address","indexed":true,"internalType":"address"},{"name":"issuerName","type":"string","indexed":false,"internalType":"string"},{"name":"timestamp","type":"uint256","indexed":false,"internalType":"uint256"},{"name":"blockNumber","type":"uint256","indexed":false,"internalType":"uint256"}],"anonymous":false},{"type":"event","name":"IssuerAuthorized","inputs":[{"name":"issuer","type":"address","indexed":true,"internalType":"address"},{"name":"name","type":"string","indexed":false,"internalType":"string"}],"anonymous":false},{"type":"event","name":"IssuerRevoked","inputs":[{"name":"issuer","type":"address","indexed":true,"internalType":"address"}],"anonymous":false},{"type":"event","name":"RecordVerified","inputs":[{"name":"certId","type":"string","indexed":true,"internalType":"string"},{"name":"isValid","type":"bool","indexed":false,"internalType":"bool"}],"anonymous":false}],"bytecode":{"object":"0x608060405234801561000f575f5ffd5b50604051613277380380613277833981810160405281019061003191906102b0565b335f5f6101000a81548173ffffffffffffffffffffffffffffffffffffffff021916908373ffffffffffffffffffffffffffffffffffffffff1602179055506001805f3373ffffffffffffffffffffffffffffffffffffffff1673ffffffffffffffffffffffffffffffffffffffff1681526020019081526020015f205f6101000a81548160ff0219169083151502179055508060025f3373ffffffffffffffffffffffffffffffffffffffff1673ffffffffffffffffffffffffffffffffffffffff1681526020019081526020015f20908161010e9190610507565b503373ffffffffffffffffffffffffffffffffffffffff167f4a1726c837046486d7e0af20814f9e585c72cfaa1c46e87414677bc7baab9be282604051610155919061061e565b60405180910390a25061063e565b5f604051905090565b5f5ffd5b5f5ffd5b5f5ffd5b5f5ffd5b5f601f19601f8301169050919050565b7f4e487b71000000000000000000000000000000000000000000000000000000005f52604160045260245ffd5b6101c28261017c565b810181811067ffffffffffffffff821117156101e1576101e061018c565b5b80604052505050565b5f6101f3610163565b90506101ff82826101b9565b919050565b5f67ffffffffffffffff82111561021e5761021d61018c565b5b6102278261017c565b9050602081019050919050565b8281835e5f83830152505050565b5f61025461024f84610204565b6101ea565b9050828152602081018484840111156102705761026f610178565b5b61027b848285610234565b509392505050565b5f82601f83011261029757610296610174565b5b81516102a7848260208601610242565b91505092915050565b5f602082840312156102c5576102c461016c565b5b5f82015167ffffffffffffffff8111156102e2576102e1610170565b5b6102ee84828501610283565b91505092915050565b5f81519050919050565b7f4e487b71000000000000000000000000000000000000000000000000000000005f52602260045260245ffd5b5f600282049050600182168061034557607f821691505b60208210810361035857610357610301565b5b50919050565b5f819050815f5260205f209050919050565b5f6020601f8301049050919050565b5f82821b905092915050565b5f600883026103ba7fffffffffffffffffffffffffffffffffffffffffffffffffffffffffffffffff8261037f565b6103c4868361037f565b95508019841693508086168417925050509392505050565b5f819050919050565b5f819050919050565b5f6104086104036103fe846103dc565b6103e5565b6103dc565b9050919050565b5f819050919050565b610421836103ee565b61043561042d8261040f565b84845461038b565b825550505050565b5f5f905090565b61044c61043d565b610457818484610418565b505050565b5b8181101561047a5761046f5f82610444565b60018101905061045d565b5050565b601f8211156104bf576104908161035e565b61049984610370565b810160208510156104a8578190505b6104bc6104b485610370565b83018261045c565b50505b505050565b5f82821c905092915050565b5f6104df5f19846008026104c4565b1980831691505092915050565b5f6104f783836104d0565b9150826002028217905092915050565b610510826102f7565b67ffffffffffffffff8111156105295761052861018c565b5b610533825461032e565b61053e82828561047e565b5f60209050601f83116001811461056f575f841561055d578287015190505b61056785826104ec565b8655506105ce565b601f19841661057d8661035e565b5f5b828110156105a45784890151825560018201915060208501945060208101905061057f565b868310156105c157848901516105bd601f8916826104d0565b8355505b6001600288020188555050505b505050505050565b5f82825260208201905092915050565b5f6105f0826102f7565b6105fa81856105d6565b935061060a818560208601610234565b6106138161017c565b840191505092915050565b5f6020820190508181035f83015261063681846105e6565b905092915050565b612c2c8061064b5f395ff3fe608060405234801561000f575f5ffd5b5060043610610113575f3560e01c8063540248f0116100a05780638da5cb5b1161006f5780638da5cb5b1461034c5780638fa44e151461036a578063e7af3bc414610388578063f2fde38b146103b8578063f731fa0f146103d457610113565b8063540248f01461029a578063541e771d146102ca5780635c1020f4146103005780637f8d3a3c1461033057610113565b806311dd8845116100e757806311dd8845146101b1578063122a183a146101e6578063125f89741461021a578063247565771461023857806331ba19661461026a57610113565b80626296791461011757806307ec312a146101335780630aeacb5e146101635780630f9c774d14610181575b5f5ffd5b610131600480360381019061012c9190611a5e565b610404565b005b61014d60048036038101906101489190611a5e565b610643565b60405161015a9190611af9565b60405180910390f35b61016b610710565b6040516101789190611b31565b60405180910390f35b61019b60048036038101906101969190611b74565b610719565b6040516101a89190611af9565b60405180910390f35b6101cb60048036038101906101c69190611ccb565b6107bf565b6040516101dd96959493929190611d53565b60405180910390f35b61020060048036038101906101fb9190611de3565b6109d2565b604051610211959493929190611e3d565b60405180910390f35b610222610c9f565b60405161022f9190611b31565b60405180910390f35b610252600480360381019061024d9190611de3565b610ca5565b60405161026193929190611e95565b60405180910390f35b610284600480360381019061027f9190611a5e565b61110a565b6040516102919190611eca565b60405180910390f35b6102b460048036038101906102af9190611ccb565b61115c565b6040516102c19190611eca565b60405180910390f35b6102e460048036038101906102df9190611ccb565b611192565b6040516102f79796959493929190611ee3565b60405180910390f35b61031a60048036038101906103159190611f5e565b61131f565b604051610327919061208f565b60405180910390f35b61034a600480360381019061034591906120a8565b61135d565b005b6103546115d4565b6040516103619190612102565b60405180910390f35b6103726115f8565b60405161037f919061221e565b60405180910390f35b6103a2600480360381019061039d9190611a5e565b6116cc565b6040516103af9190611af9565b60405180910390f35b6103d260048036038101906103cd9190611a5e565b611767565b005b6103ee60048036038101906103e99190611a5e565b6119d6565b6040516103fb9190611eca565b60405180910390f35b5f5f9054906101000a900473ffffffffffffffffffffffffffffffffffffffff1673ffffffffffffffffffffffffffffffffffffffff163373ffffffffffffffffffffffffffffffffffffffff1614610492576040517f08c379a0000000000000000000000000000000000000000000000000000000008152600401610489906122ae565b60405180910390fd5b60015f8273ffffffffffffffffffffffffffffffffffffffff1673ffffffffffffffffffffffffffffffffffffffff1681526020019081526020015f205f9054906101000a900460ff1661051b576040517f08c379a000000000000000000000000000000000000000000000000000000000815260040161051290612316565b60405180910390fd5b5f5f9054906101000a900473ffffffffffffffffffffffffffffffffffffffff1673ffffffffffffffffffffffffffffffffffffffff168173ffffffffffffffffffffffffffffffffffffffff16036105a9576040517f08c379a00000000000000000000000000000000000000000000000000000000081526004016105a09061237e565b60405180910390fd5b5f60015f8373ffffffffffffffffffffffffffffffffffffffff1673ffffffffffffffffffffffffffffffffffffffff1681526020019081526020015f205f6101000a81548160ff0219169083151502179055508073ffffffffffffffffffffffffffffffffffffffff167f95a4c2ae425bb769549aa1a911911ff57c17ae811ae8c8962d0b9746fcb1539760405160405180910390a250565b606060025f8373ffffffffffffffffffffffffffffffffffffffff1673ffffffffffffffffffffffffffffffffffffffff1681526020019081526020015f20805461068d906123c9565b80601f01602080910402602001604051908101604052809291908181526020018280546106b9906123c9565b80156107045780601f106106db57610100808354040283529160200191610704565b820191905f5260205f20905b8154815290600101906020018083116106e757829003601f168201915b50505050509050919050565b5f600554905090565b60048181548110610728575f80fd5b905f5260205f20015f915090508054610740906123c9565b80601f016020809104026020016040519081016040528092919081815260200182805461076c906123c9565b80156107b75780601f1061078e576101008083540402835291602001916107b7565b820191905f5260205f20905b81548152906001019060200180831161079a57829003601f168201915b505050505081565b5f5f60605f5f5f5f6003886040516107d79190612433565b90815260200160405180910390206040518060e00160405290815f820180546107ff906123c9565b80601f016020809104026020016040519081016040528092919081815260200182805461082b906123c9565b80156108765780601f1061084d57610100808354040283529160200191610876565b820191905f5260205f20905b81548152906001019060200180831161085957829003601f168201915b5050505050815260200160018201548152602001600282015f9054906101000a900473ffffffffffffffffffffffffffffffffffffffff1673ffffffffffffffffffffffffffffffffffffffff1673ffffffffffffffffffffffffffffffffffffffff1681526020016003820154815260200160048201548152602001600582015f9054906101000a900460ff1615151515815260200160068201805461091c906123c9565b80601f0160208091040260200160405190810160405280929190818152602001828054610948906123c9565b80156109935780601f1061096a57610100808354040283529160200191610993565b820191905f5260205f20905b81548152906001019060200180831161097657829003601f168201915b5050505050815250509050806020015181604001518260c00151836060015184608001518560a001519650965096509650965096505091939550919395565b5f5f60605f5f866003816040516109e99190612433565b90815260200160405180910390206005015f9054906101000a900460ff16610a46576040517f08c379a0000000000000000000000000000000000000000000000000000000008152600401610a3d90612493565b60405180910390fd5b5f600389604051610a579190612433565b90815260200160405180910390206040518060e00160405290815f82018054610a7f906123c9565b80601f0160208091040260200160405190810160405280929190818152602001828054610aab906123c9565b8015610af65780601f10610acd57610100808354040283529160200191610af6565b820191905f5260205f20905b815481529060010190602001808311610ad957829003601f168201915b5050505050815260200160018201548152602001600282015f9054906101000a900473ffffffffffffffffffffffffffffffffffffffff1673ffffffffffffffffffffffffffffffffffffffff1673ffffffffffffffffffffffffffffffffffffffff1681526020016003820154815260200160048201548152602001600582015f9054906101000a900460ff16151515158152602001600682018054610b9c906123c9565b80601f0160208091040260200160405190810160405280929190818152602001828054610bc8906123c9565b8015610c135780601f10610bea57610100808354040283529160200191610c13565b820191905f5260205f20905b815481529060010190602001808311610bf657829003601f168201915b505050505081525050905087816020015114965088604051610c359190612433565b60405180910390207f9c24415b6fe548751f8d7b81af86d3ff26632f6361514a220a68bdc34771d69888604051610c6c9190611eca565b60405180910390a28681604001518260c00151836060015184608001519650965096509650965050509295509295909350565b60055481565b5f5f5f60015f3373ffffffffffffffffffffffffffffffffffffffff1673ffffffffffffffffffffffffffffffffffffffff1681526020019081526020015f205f9054906101000a900460ff16610d31576040517f08c379a0000000000000000000000000000000000000000000000000000000008152600401610d28906124fb565b60405180910390fd5b84600381604051610d429190612433565b90815260200160405180910390206005015f9054906101000a900460ff1615610da0576040517f08c379a0000000000000000000000000000000000000000000000000000000008152600401610d9790612563565b60405180910390fd5b5f865111610de3576040517f08c379a0000000000000000000000000000000000000000000000000000000008152600401610dda906125cb565b60405180910390fd5b5f5f1b8503610e27576040517f08c379a0000000000000000000000000000000000000000000000000000000008152600401610e1e90612633565b60405180910390fd5b5f6040518060e001604052808881526020018781526020013373ffffffffffffffffffffffffffffffffffffffff16815260200142815260200143815260200160011515815260200160025f3373ffffffffffffffffffffffffffffffffffffffff1673ffffffffffffffffffffffffffffffffffffffff1681526020019081526020015f208054610eb8906123c9565b80601f0160208091040260200160405190810160405280929190818152602001828054610ee4906123c9565b8015610f2f5780601f10610f0657610100808354040283529160200191610f2f565b820191905f5260205f20905b815481529060010190602001808311610f1257829003601f168201915b5050505050815250905080600388604051610f4a9190612433565b90815260200160405180910390205f820151815f019081610f6b91906127f1565b50602082015181600101556040820151816002015f6101000a81548173ffffffffffffffffffffffffffffffffffffffff021916908373ffffffffffffffffffffffffffffffffffffffff160217905550606082015181600301556080820151816004015560a0820151816005015f6101000a81548160ff02191690831515021790555060c082015181600601908161100491906127f1565b50905050600487908060018154018082558091505060019003905f5260205f20015f90919091909150908161103991906127f1565b5060055f81548092919061104c906128ed565b91905055503373ffffffffffffffffffffffffffffffffffffffff16876040516110769190612433565b60405180910390207f824e8f50f40df8889887a2fbd94b2e4f42a1d7ae7c36ec2e1bb709c5747d77628860025f3373ffffffffffffffffffffffffffffffffffffffff1673ffffffffffffffffffffffffffffffffffffffff1681526020019081526020015f2042436040516110ef94939291906129b5565b60405180910390a36001424394509450945050509250925092565b5f60015f8373ffffffffffffffffffffffffffffffffffffffff1673ffffffffffffffffffffffffffffffffffffffff1681526020019081526020015f205f9054906101000a900460ff169050919050565b5f60038260405161116d9190612433565b90815260200160405180910390206005015f9054906101000a900460ff169050919050565b6003818051602081018201805184825260208301602085012081835280955050505050505f91509050805f0180546111c9906123c9565b80601f01602080910402602001604051908101604052809291908181526020018280546111f5906123c9565b80156112405780601f1061121757610100808354040283529160200191611240565b820191905f5260205f20905b81548152906001019060200180831161122357829003601f168201915b505050505090806001015490806002015f9054906101000a900473ffffffffffffffffffffffffffffffffffffffff1690806003015490806004015490806005015f9054906101000a900460ff169080600601805461129e906123c9565b80601f01602080910402602001604051908101604052809291908181526020018280546112ca906123c9565b80156113155780601f106112ec57610100808354040283529160200191611315565b820191905f5260205f20905b8154815290600101906020018083116112f857829003601f168201915b5050505050905087565b5f86868686868660405160200161133b969594939291906129ff565b6040516020818303038152906040528051906020012090509695505050505050565b5f5f9054906101000a900473ffffffffffffffffffffffffffffffffffffffff1673ffffffffffffffffffffffffffffffffffffffff163373ffffffffffffffffffffffffffffffffffffffff16146113eb576040517f08c379a00000000000000000000000000000000000000000000000000000000081526004016113e2906122ae565b60405180910390fd5b5f73ffffffffffffffffffffffffffffffffffffffff168273ffffffffffffffffffffffffffffffffffffffff1603611459576040517f08c379a000000000000000000000000000000000000000000000000000000000815260040161145090612aa0565b60405180910390fd5b60015f8373ffffffffffffffffffffffffffffffffffffffff1673ffffffffffffffffffffffffffffffffffffffff1681526020019081526020015f205f9054906101000a900460ff16156114e3576040517f08c379a00000000000000000000000000000000000000000000000000000000081526004016114da90612b08565b60405180910390fd5b6001805f8473ffffffffffffffffffffffffffffffffffffffff1673ffffffffffffffffffffffffffffffffffffffff1681526020019081526020015f205f6101000a81548160ff0219169083151502179055508060025f8473ffffffffffffffffffffffffffffffffffffffff1673ffffffffffffffffffffffffffffffffffffffff1681526020019081526020015f20908161158191906127f1565b508173ffffffffffffffffffffffffffffffffffffffff167f4a1726c837046486d7e0af20814f9e585c72cfaa1c46e87414677bc7baab9be2826040516115c89190611af9565b60405180910390a25050565b5f5f9054906101000a900473ffffffffffffffffffffffffffffffffffffffff1681565b60606004805480602002602001604051908101604052809291908181526020015f905b828210156116c3578382905f5260205f20018054611638906123c9565b80601f0160208091040260200160405190810160405280929190818152602001828054611664906123c9565b80156116af5780601f10611686576101008083540402835291602001916116af565b820191905f5260205f20905b81548152906001019060200180831161169257829003601f168201915b50505050508152602001906001019061161b565b50505050905090565b6002602052805f5260405f205f9150905080546116e8906123c9565b80601f0160208091040260200160405190810160405280929190818152602001828054611714906123c9565b801561175f5780601f106117365761010080835404028352916020019161175f565b820191905f5260205f20905b81548152906001019060200180831161174257829003601f168201915b505050505081565b5f5f9054906101000a900473ffffffffffffffffffffffffffffffffffffffff1673ffffffffffffffffffffffffffffffffffffffff163373ffffffffffffffffffffffffffffffffffffffff16146117f5576040517f08c379a00000000000000000000000000000000000000000000000000000000081526004016117ec906122ae565b60405180910390fd5b5f73ffffffffffffffffffffffffffffffffffffffff168173ffffffffffffffffffffffffffffffffffffffff1603611863576040517f08c379a000000000000000000000000000000000000000000000000000000000815260040161185a90612b70565b60405180910390fd5b5f5f9054906101000a900473ffffffffffffffffffffffffffffffffffffffff1673ffffffffffffffffffffffffffffffffffffffff168173ffffffffffffffffffffffffffffffffffffffff16036118f1576040517f08c379a00000000000000000000000000000000000000000000000000000000081526004016118e890612bd8565b60405180910390fd5b805f5f6101000a81548173ffffffffffffffffffffffffffffffffffffffff021916908373ffffffffffffffffffffffffffffffffffffffff16021790555060015f8273ffffffffffffffffffffffffffffffffffffffff1673ffffffffffffffffffffffffffffffffffffffff1681526020019081526020015f205f9054906101000a900460ff166119d3576001805f8373ffffffffffffffffffffffffffffffffffffffff1673ffffffffffffffffffffffffffffffffffffffff1681526020019081526020015f205f6101000a81548160ff0219169083151502179055505b50565b6001602052805f5260405f205f915054906101000a900460ff1681565b5f604051905090565b5f5ffd5b5f5ffd5b5f73ffffffffffffffffffffffffffffffffffffffff82169050919050565b5f611a2d82611a04565b9050919050565b611a3d81611a23565b8114611a47575f5ffd5b50565b5f81359050611a5881611a34565b92915050565b5f60208284031215611a7357611a726119fc565b5b5f611a8084828501611a4a565b91505092915050565b5f81519050919050565b5f82825260208201905092915050565b8281835e5f83830152505050565b5f601f19601f8301169050919050565b5f611acb82611a89565b611ad58185611a93565b9350611ae5818560208601611aa3565b611aee81611ab1565b840191505092915050565b5f6020820190508181035f830152611b118184611ac1565b905092915050565b5f819050919050565b611b2b81611b19565b82525050565b5f602082019050611b445f830184611b22565b92915050565b611b5381611b19565b8114611b5d575f5ffd5b50565b5f81359050611b6e81611b4a565b92915050565b5f60208284031215611b8957611b886119fc565b5b5f611b9684828501611b60565b91505092915050565b5f5ffd5b5f5ffd5b7f4e487b71000000000000000000000000000000000000000000000000000000005f52604160045260245ffd5b611bdd82611ab1565b810181811067ffffffffffffffff82111715611bfc57611bfb611ba7565b5b80604052505050565b5f611c0e6119f3565b9050611c1a8282611bd4565b919050565b5f67ffffffffffffffff821115611c3957611c38611ba7565b5b611c4282611ab1565b9050602081019050919050565b828183375f83830152505050565b5f611c6f611c6a84611c1f565b611c05565b905082815260208101848484011115611c8b57611c8a611ba3565b5b611c96848285611c4f565b509392505050565b5f82601f830112611cb257611cb1611b9f565b5b8135611cc2848260208601611c5d565b91505092915050565b5f60208284031215611ce057611cdf6119fc565b5b5f82013567ffffffffffffffff811115611cfd57611cfc611a00565b5b611d0984828501611c9e565b91505092915050565b5f819050919050565b611d2481611d12565b82525050565b611d3381611a23565b82525050565b5f8115159050919050565b611d4d81611d39565b82525050565b5f60c082019050611d665f830189611d1b565b611d736020830188611d2a565b8181036040830152611d858187611ac1565b9050611d946060830186611b22565b611da16080830185611b22565b611dae60a0830184611d44565b979650505050505050565b611dc281611d12565b8114611dcc575f5ffd5b50565b5f81359050611ddd81611db9565b92915050565b5f5f60408385031215611df957611df86119fc565b5b5f83013567ffffffffffffffff811115611e1657611e15611a00565b5b611e2285828601611c9e565b9250506020611e3385828601611dcf565b9150509250929050565b5f60a082019050611e505f830188611d44565b611e5d6020830187611d2a565b8181036040830152611e6f8186611ac1565b9050611e7e6060830185611b22565b611e8b6080830184611b22565b9695505050505050565b5f606082019050611ea85f830186611d44565b611eb56020830185611b22565b611ec26040830184611b22565b949350505050565b5f602082019050611edd5f830184611d44565b92915050565b5f60e0820190508181035f830152611efb818a611ac1565b9050611f0a6020830189611d1b565b611f176040830188611d2a565b611f246060830187611b22565b611f316080830186611b22565b611f3e60a0830185611d44565b81810360c0830152611f508184611ac1565b905098975050505050505050565b5f5f5f5f5f5f60c08789031215611f7857611f776119fc565b5b5f87013567ffffffffffffffff811115611f9557611f94611a00565b5b611fa189828a01611c9e565b965050602087013567ffffffffffffffff811115611fc257611fc1611a00565b5b611fce89828a01611c9e565b955050604087013567ffffffffffffffff811115611fef57611fee611a00565b5b611ffb89828a01611c9e565b945050606087013567ffffffffffffffff81111561201c5761201b611a00565b5b61202889828a01611c9e565b935050608087013567ffffffffffffffff81111561204957612048611a00565b5b61205589828a01611c9e565b92505060a087013567ffffffffffffffff81111561207657612075611a00565b5b61208289828a01611c9e565b9150509295509295509295565b5f6020820190506120a25f830184611d1b565b92915050565b5f5f604083850312156120be576120bd6119fc565b5b5f6120cb85828601611a4a565b925050602083013567ffffffffffffffff8111156120ec576120eb611a00565b5b6120f885828601611c9e565b9150509250929050565b5f6020820190506121155f830184611d2a565b92915050565b5f81519050919050565b5f82825260208201905092915050565b5f819050602082019050919050565b5f82825260208201905092915050565b5f61215e82611a89565b6121688185612144565b9350612178818560208601611aa3565b61218181611ab1565b840191505092915050565b5f6121978383612154565b905092915050565b5f602082019050919050565b5f6121b58261211b565b6121bf8185612125565b9350836020820285016121d185612135565b805f5b8581101561220c57848403895281516121ed858261218c565b94506121f88361219f565b925060208a019950506001810190506121d4565b50829750879550505050505092915050565b5f6020820190508181035f83015261223681846121ab565b905092915050565b7f4f6e6c79206f776e65722063616e2063616c6c20746869732066756e6374696f5f8201527f6e00000000000000000000000000000000000000000000000000000000000000602082015250565b5f612298602183611a93565b91506122a38261223e565b604082019050919050565b5f6020820190508181035f8301526122c58161228c565b9050919050565b7f497373756572206e6f7420617574686f72697a656400000000000000000000005f82015250565b5f612300601583611a93565b915061230b826122cc565b602082019050919050565b5f6020820190508181035f83015261232d816122f4565b9050919050565b7f43616e6e6f74207265766f6b65206f776e6572000000000000000000000000005f82015250565b5f612368601383611a93565b915061237382612334565b602082019050919050565b5f6020820190508181035f8301526123958161235c565b9050919050565b7f4e487b71000000000000000000000000000000000000000000000000000000005f52602260045260245ffd5b5f60028204905060018216806123e057607f821691505b6020821081036123f3576123f261239c565b5b50919050565b5f81905092915050565b5f61240d82611a89565b61241781856123f9565b9350612427818560208601611aa3565b80840191505092915050565b5f61243e8284612403565b915081905092915050565b7f436572746966696361746520494420646f6573206e6f742065786973740000005f82015250565b5f61247d601d83611a93565b915061248882612449565b602082019050919050565b5f6020820190508181035f8301526124aa81612471565b9050919050565b7f4e6f7420616e20617574686f72697a65642069737375657200000000000000005f82015250565b5f6124e5601883611a93565b91506124f0826124b1565b602082019050919050565b5f6020820190508181035f830152612512816124d9565b9050919050565b7f436572746966696361746520494420616c7265616479206578697374730000005f82015250565b5f61254d601d83611a93565b915061255882612519565b602082019050919050565b5f6020820190508181035f83015261257a81612541565b9050919050565b7f43657274696669636174652049442063616e6e6f7420626520656d70747900005f82015250565b5f6125b5601e83611a93565b91506125c082612581565b602082019050919050565b5f6020820190508181035f8301526125e2816125a9565b9050919050565b7f4461746120686173682063616e6e6f7420626520656d707479000000000000005f82015250565b5f61261d601983611a93565b9150612628826125e9565b602082019050919050565b5f6020820190508181035f83015261264a81612611565b9050919050565b5f819050815f5260205f209050919050565b5f6020601f8301049050919050565b5f82821b905092915050565b5f600883026126ad7fffffffffffffffffffffffffffffffffffffffffffffffffffffffffffffffff82612672565b6126b78683612672565b95508019841693508086168417925050509392505050565b5f819050919050565b5f6126f26126ed6126e884611b19565b6126cf565b611b19565b9050919050565b5f819050919050565b61270b836126d8565b61271f612717826126f9565b84845461267e565b825550505050565b5f5f905090565b612736612727565b612741818484612702565b505050565b5b81811015612764576127595f8261272e565b600181019050612747565b5050565b601f8211156127a95761277a81612651565b61278384612663565b81016020851015612792578190505b6127a661279e85612663565b830182612746565b50505b505050565b5f82821c905092915050565b5f6127c95f19846008026127ae565b1980831691505092915050565b5f6127e183836127ba565b9150826002028217905092915050565b6127fa82611a89565b67ffffffffffffffff81111561281357612812611ba7565b5b61281d82546123c9565b612828828285612768565b5f60209050601f831160018114612859575f8415612847578287015190505b61285185826127d6565b8655506128b8565b601f19841661286786612651565b5f5b8281101561288e57848901518255600182019150602085019450602081019050612869565b868310156128ab57848901516128a7601f8916826127ba565b8355505b6001600288020188555050505b505050505050565b7f4e487b71000000000000000000000000000000000000000000000000000000005f52601160045260245ffd5b5f6128f782611b19565b91507fffffffffffffffffffffffffffffffffffffffffffffffffffffffffffffffff8203612929576129286128c0565b5b600182019050919050565b5f8154612940816123c9565b61294a8186611a93565b9450600182165f8114612964576001811461297a576129ac565b60ff1983168652811515602002860193506129ac565b61298385612651565b5f5b838110156129a457815481890152600182019150602081019050612985565b808801955050505b50505092915050565b5f6080820190506129c85f830187611d1b565b81810360208301526129da8186612934565b90506129e96040830185611b22565b6129f66060830184611b22565b95945050505050565b5f612a0a8289612403565b9150612a168288612403565b9150612a228287612403565b9150612a2e8286612403565b9150612a3a8285612403565b9150612a468284612403565b9150819050979650505050505050565b7f496e76616c6964206973737565722061646472657373000000000000000000005f82015250565b5f612a8a601683611a93565b9150612a9582612a56565b602082019050919050565b5f6020820190508181035f830152612ab781612a7e565b9050919050565b7f49737375657220616c726561647920617574686f72697a6564000000000000005f82015250565b5f612af2601983611a93565b9150612afd82612abe565b602082019050919050565b5f6020820190508181035f830152612b1f81612ae6565b9050919050565b7f496e76616c6964206e6577206f776e65722061646472657373000000000000005f82015250565b5f612b5a601983611a93565b9150612b6582612b26565b602082019050919050565b5f6020820190508181035f830152612b8781612b4e565b9050919050565b7f416c726561647920746865206f776e65720000000000000000000000000000005f82015250565b5f612bc2601183611a93565b9150612bcd82612b8e565b602082019050919050565b5f6020820190508181035f830152612bef81612bb6565b905091905056fea2646970667358221220a5fb2e6e8f449c5e3655b776b15792cfd1d0359277f32830448997dfb3b6f07564736f6c634300081e0033","linkReferences":{}},"methodIdentifiers":{"addAlumniRecord(string,bytes32)":"24756577","authorizeIssuer(address,string)":"7f8d3a3c","authorizedIssuers(address)":"f731fa0f","certificateIds(uint256)":"0f9c774d","generateDataHash(string,string,string,string,string,string)":"5c1020f4","getAllCertificateIds()":"8fa44e15","getIssuerName(address)":"07ec312a","getRecord(string)":"11dd8845","getTotalRecords()":"0aeacb5e","isAuthorizedIssuer(address)":"31ba1966","issuerNames(address)":"e7af3bc4","owner()":"8da5cb5b","recordExists(string)":"540248f0","records(string)":"541e771d","revokeIssuer(address)":"00629679","totalRecords()":"125f8974","transferOwnership(address)":"f2fde38b","verifyRecord(string,bytes32)":"122a183a"},"id":21}